:0300000002070EE6
:0C070E00787FE4F6D8FD75814F02075596
:10079A0057616974696E6720746F2053746172744B
:1007AA000054696D653A20253264207300537461E0
:1007BA0072742154696D653A253264207300506C55
:1007CA00617965722025642057696E73210053632D
:1007DA006F72653A202564210053455421205469DB
:1007EA006D653A2025326420730054696D65204F87
:1007FA0076657200507265737320524553455400F2
:1009910001220A012C0A08240000000000000000C6
:1009A100012F00012E0101320102300000012D0052
:1004BF00E532652E6006120A5B852E32E52E640149
:1004CF00702C7BFF7A07799AFDFF12091E750BFFBF
:1004DF00750C07750DAB750E00852C0F7B007A0020
:1004EF00793412006A7B007A0079340205F7E52E21
:1004FF0064027041E52F60030205FE750BFF750C5A
:10050F0007750DB7F50E852C0FFB7A0079341200A5
:10051F006A7B007A007934E4FDFF12091EE52D6431
:10052F000160030205FEF52D152CE52C6003020575
:10053F00FE752E0522E52E64037062E52F7003020F
:10054F0005FE85222C750BFF750C07750DC8750EF2
:10055F000085330F7B007A00793412006A7B007AB2
:10056F00007934E4FDFF12091E74242533F8067553
:10057F000BFF750C07750DD874242533F8E6750E2F
:10058F0000F50F7B007A00793412006A7B007A0045
:10059F0079347D01E4FF12091EE4F52F22E52E6464
:1005AF0004702EFE7F08FDFB7A00792412066D750C
:1005BF000BFF750C07750DE3750E0085220F7B0081
:1005CF007A00793412006A7B007A007934E4FD8076
:1005DF001AE52EB405197BFF7A0779F4E4FDFF12B3
:1005EF00091E7BFF7A0779FE7D01E4FF12091E22A7
:100A250012036A8F23E52360047F0180027F008F14
:050A35002F8523332290
:0E0A4D00120A3A12086C120A251204BF80F831
:100A3A005389F0438901758CFC758A18D2A9D2AF03
:030A4A00D28C2229
:03000B000208F5F3
:1008F500C0E0C0D0758CFC758A180531E5317002F1
:100905000530C394E8E5309403400975300075312E
:0909150000752D01D0D0D0E032B4
:10036A00E4F508E52E6401703020800F7F0AFE1242
:10037A0009D2208006752E023080FD3082030204E5
:10038A00BC7F0A7E001209D23082030204BC752E99
:10039A00043082030204BC80F8E52E640260030282
:1003AA00045D2090127F0AFE1209D2209009750876
:1003BA0001752E033090FD2091137F0A7E001209E9
:1003CA00D2209109750802752E033091FD209213EF
:1003DA007F0A7E001209D2209209750803752E033E
:1003EA003092FD2093137F0A7E001209D2209309CE
:1003FA00750804752E033093FD2094137F0A7E003E
:10040A001209D2209409750805752E033094FD202F
:10041A0095137F0A7E001209D22095097508067580
:10042A002E033095FD2096137F0A7E001209D220F2
:10043A009609750807752E033096FD2097747F0A72
:10044A007E001209D220976A750808752E03209734
:10045A006180FBE52E64036005E52EB40515208155
:10046A00517F0A7E001209D2208147752E01208110
:10047A004180FBE52E6404703920830E7F0AFE1248
:10048A0009D220830505223083FD20840F7F0A7E4E
:10049A00001209D220840515223084FD2082137FA0
:1004AA000A7E001209D2208209752E0185222C307B
:0404BA0082FDAF0808
:0104BE00221B
:1009F200EF131313541F1392A4EF1313543F1392C4
:0C0A0200A3EFC3131392A2EF1392A122E2
:050A0E007F031209F254
:100A1300D2A77F017E00120A67C2A77F327E00023F
:020A23000A6760
:10096D008D0BEF24FF92A6C2A5E50BC4540FFF1209
:10097D0009F2120A13AF0B1209F2120A137F027E4B
:04098D00000209D289
:07000300AD07E4FF02096DE7
:070A7C00AD077F0102096DC7
:0C0A5B007F011200037F057E000209D21B
:1009B200EFD3940F4002E4FFEDD394014002E4FD33
:1009C200ED7006EF2480FF8004EF24C0FF020003D5
:0A0A72008B1E1209B2AF1E020A7CAF
:10091E008B088A09890A1209B2AB08AA09A90A1218
:10092E0005FF6013050AE50A7002050914F91205A0
:08093E00FFFF120A7C80E22297
:08080A008F448D458A468B479F
:10081200E4F549E549C395485030AE46AF477C0000
:100822007D0A120618ED2430FFE549FDE548C39D17
:10083200FD74492DF8A607AE46AF477C007D0A122B
:1008420006188E468F47054980C9AD45AF44120947
:10085200B2E4F549E549C39548500E744A2549F872
:09086200E6FF120A7C054980EB57
:01086B00226A
:1008BF00EBC4540FF51CEB540FF51D1209B2E51CD8
:1008CF00C3940AE51C50052430FF80032437FF1220
:1008DF000A7CE51DC3940AE51D50052430FF8003F3
:0608EF002437FF020A7C21
:10086C007F327E001209D2C2A6C2A5120A0E7F05E3
:10087C007E001209D2120A0E7F057E001209D212D6
:10088C000A0E7F057E001209D27F021209F2120AAB
:10089C00137F057E001209D27F281200037F0C12F1
:1008AC0000037F011200037F057E001209D27F0630
:0308BC0002000334
:0B0A6700EF1FAC0670011E4C70F62261
:1009D200E4FDFCC3ED9FEC9E5015E4FBFA0BBB005B
:0F09E200010AEB64784A70F50DBD00010C80E44A
:0109F10022E3
:10071A00020A4DE493A3F8E493A34003F68001F29E
:10072A0008DFF48029E493A3F85407240CC8C333E0
:10073A00C4540F4420C8834004F456800146F6DFAF
:10074A00E4800B0102040810204080900991E47EA5
:10075A00019360BCA3FF543F30E509541FFEE493A4
:10076A00A360010ECF54C025E060A840B8E493A36B
:10077A00FAE493A3F8E493A3C8C582C8CAC583CA96
:10078A00F0A3C8C582C8CAC583CADFE9DEE780BE4E
:0109B1000045
:1005FF00BB010689828A83E0225002E722BBFE02FA
:09060F00E32289828A83E493222C
:10061800BC000BBE0029EF8DF084FFADF022E4CCC6
:10062800F875F008EF2FFFEE33FEEC33FCEE9DEC8F
:10063800984005FCEE9DFE0FD5F0E9E4CEFD22EDD5
:10064800F8F5F0EE8420D21CFEADF075F008EF2F1F
:10065800FFED33FD4007985006D5F0F222C398FD10
:050668000FD5F0EA22AD
:10000E00E517240BF8E60517227808300702780B5F
:10001E00E475F0011206D80205FF2000EB7F2ED208
:10002E00008018EF540F2490D43440D4FF30040BCA
:10003E00EF24BFB41A0050032461FFE518600215C7
:10004E0018051BE51B7002051A30070D7808E475BC
:10005E00F0011206D8EF0206C60209467403D20753
:10006E008003E4C207F5178B088A09890AE4F5189C
:10007E00F51AF51BE51860077F2012004980F5750B
:10008E0019FFC201C200C202C203C205C206C208E3
:10009E00120017FF700D3007057F0012005AAF1BBC
:1000AE00AE1A22B4255FC2D5C204120017FF24D0A7
:1000BE00B40A00501A75F00A781830D50508B6FF44
:1000CE000106C6A426F620D5047002D20380D924D8
:1000DE00CFB41A00EF5004C2E5D20402025AD20184
:1000EE0080C6D20080C0D20280BCD2D580BAD205E2
:1000FE0080B47F201200492002077401B518004019
:10010E00F112000EFF120049020082D208D20680C0
:10011E009512000EFB12000EFA12000EF94A4B70E9
:10012E0006792B7A037BFF20022EE518602A7E00CB
:10013E008E8275830012069960060EEE651970F0B8
:10014E00C2D5EBC0E0EAC0E0E9C0E0EE1202A1D0F9
:10015E00E0F9D0E0FAD0E0FB1205FFFF60AAEBC099
:10016E00E0EAC0E0E9C0E0120049D0E02401F9D095
:10017E00E03400FAD0E0FBE5190460DCD519D98033
:10018E00877BFF7A02799DD202809C79108002795A
:10019E0008C206C2088008D2D5790A8004790AC23C
:1001AE00D5E519047002F519E4FAFDFEFF12000EF2
:1001BE00FC7B0820011312000EFD7B1030000A128A
:1001CE00000EFE12000EFF7B20EC3382D592D5502E
:1001DE0013C3E43000069FFFE49EFEE42001039D5E
:1001EE00FDE49CFCE4CBF8C201EC700CCFCECDCC80
:1001FE00E824F8F870F38017C3EF33FFEE33FEED0B
:10020E0033FDEC33FCEB33FB994002FB0FD8E9EBEB
:10021E00300105F8D0E0C448B201C0E00AEC4D4E02
:10022E004F78207B0070C2EAB5190040BCC0E012C6
:10023E0002A3D0F0D0E0200104C4C0E0C4B201C0DB
:10024E00F0120032D0F0D5F0EB0200821206E80177
:10025E001F5301995800F04C00EC42019D4F01A52F
:0F026E004401A54901054301AB55018F46018F9E
:10027D0045018F47034B5000F42D00F82E011B2B29
:10028D0000FC2301192003342A00B4480000011397
:10029D003F3F3F00790AA2D5200314300509B9105C
:1002AD00020404B9080104A2D5200602500104205D
:1002BD0002689202B518005034C0E07F2030031957
:1002CD007F30A20272067205500F1202FAC202C2EC
:1002DD0006C205C2087F30800F300503E9C0E01269
:1002ED000049300503D0E0F9D0E0B518CC30051742
:1002FD007F30B9100C1200497F583004077F788089
:10030D0003B908031200493002057F2D0200497F11
:10031D00202008F87F2B2006F322920280CF286E32
:10032D00756C6C2900D20112000E3001F8C20178F3
:10033D001830D50108F60200B42D5043495812006B
:10034D000E2403B405004001E49003469312003AD5
:0D035D00743A12003AD20375180402019997
:10066D00EF4E6012EF60010EEDBB010B89828A83A4
:10067D00F0A3DFFCDEFA2289F05007F709DFFCA9B1
:0C068D00F022BBFEFCF309DFFCA9F02208
:10069900BB010CE58229F582E5833AF583E0225016
:1006A90006E92582F8E622BBFE06E92582F8E22260
:0D06B900E58229F582E5833AF583E493227A
:1006C600BB010689828A83F0225002F722BBFE0113
:0206D600F3220D
:1006D800FAE6FB0808E6F925F0F618E6CA3AF62223
:1006E800D083D082F8E4937012740193700DA3A3A1
:1006F80093F8740193F5828883E4737402936860B5
:06070800EFA3A3A380DFB4
:10094600EFB40A07740D120951740A309811A89968
:10095600B8130CC2983098FDA899C298B811F63011
:0709660099FDC299F59922E9
:00000001FF
